:100000006F10D03A1300000013000000130000002E
:100010001300000013000000130000001300000094
:100020001300000013000000130000001300000084
:08003000130000007300100032
:100038000000000000000000EA040000EE040000D8
:1000480000000000F21A000000000000000000009C
:10005800F41A0000F61A000000000000000000007A
:10006800F81A000000000000FA1A00000000000062
:10007800FC1A0000FE1A0000001B0000021B000012
:10008800041B0000061B0000BA090000FC09000060
:100098002C0A00005C0A00008C0A0000121B0000F9
:1000A800141B0000161B0000181B00001A1B000080
:1000B8001C1B00001E1B0000201B0000221B000050
:1000C800241B0000261B0000281B0000D20A000089
:1000D8002C1B00002E1B0000301B0000321B0000F0
:1000E800341B0000361B0000381B00003A1B0000C0
:1000F8003C1B00003E1B0000401B0000421B000090
:10010800441B0000461B0000481B00004E1A00005C
:100118004E0B00004E1B0000501B0000521B00003D
:10012800541B0000561B0000581B00005A1B0000FF
:100138005C1B00005E1B0000601B0000621B0000CF
:10014800641B0000661B0000681B000042170000CB
:100158006C1B00006E1B0000701B0000721B00006F
:10016800741B0000761B0000781B00007A1B00003F
:100178007C1B00007E1B0000801B0000821B00000F
:10018800841B0000861B0000881B00008A1B0000DF
:100198008C1B00008E1B0000901B0000921B0000AF
:1001A800941B0000961B0000981B00009A1B00007F
:1001B8009C1B00009E1B0000A01B0000A21B00004F
:1001C800A41B0000A61B0000A81B0000AA1B00001F
:1001D8000000000000000000000000000000000017
:1001E8000000000000000000000000000000000007
:0801F8000000000000000000FF
:100200003D432A876373C3029377F700BDEFADE5E3
:10021000937606FF3D8ABA960CC34CC30CC74CC7F5
:100220004107E36BD7FE11E28280B306C3408A0622
:100230009702000096966780A6002307B700A306E2
:10024000B7002306B700A305B7002305B700A30432
:10025000B7002304B700A303B7002303B700A3022A
:10026000B7002302B700A301B7002301B700A30022
:10027000B7002300B700828093F5F50F93968500B1
:10028000D58D93960501D58D61B79396270097027A
:10029000000096968682E78086FA9680C1171D8FA9
:1002A0003E96E374C3F8A5B73367B500FD530D8BD5
:1002B00079E7B7877F7F9387F7F710419441B3724F
:1002C000F6003363F600BE92B3E262006397720CED
:1002D0006318D6065041D441B372F6003363F6007A
:1002E000BE92B3E262006398720A631BD6041045A3
:1002F0009445B372F6003363F600BE92B3E2620037
:100300006391720A631ED6025045D445B372F6005B
:100310003363F600BE92B3E26200639A720863111F
:10032000D60210499449B372F6003363F600BE92C8
:10033000B3E26200639372085105D105E30FD6F66C
:100340001317060193970601631CF7001357060164
:1003500093D706013305F7409375F50F91E9828035
:100360004183C1833305F7409375F50F91E1828096
:100370001377F70F93F7F70F3305F74082800346A3
:10038000050083C60500050585056313D60065FADB
:100390003305D640828011059105E312D6FE014552
:1003A00082802105A105E31CD6FC01458280310530
:1003B000B105E316D6FC014582804105C105E31075
:1003C000D6FC0145828039718545214506DE22DC57
:1003D00002CA02CC02CE02D002D202D402D602C499
:1003E00002C623180100EF10106685450945EF107D
:1003F00070678D47231AF10037150140E1473ECE63
:100400004C088D47130505C03ECCEF10703593079F
:100410007004370400403EC495679387F7E12C00D1
:10042000130504403EC6EF10D065C16793870706E9
:100430000C10130504403ED02313010223140102C3
:10044000EF10F07C0C1013050440EF20E0081305BA
:1004500004408545EF20E013130504408145EF205B
:100460002018130504408145EF20A018130504400F
:100470008545EF206013130504408545EF20A00F4C
:10048000F250625421618280B757000083A5C7CD26
:10049000411106C6EF20E07AB757000083A507CECA
:1004A000EF201025B757000083A547CEEF20C042AC
:1004B000EF20104DB2409315050137050040C18172
:1004C0001305054041016F202015B757000003A513
:1004D00087CD411106C64D3F1305007DEF2020302A
:1004E000B24013050000410145B77300203001A060
:1004F0004111854713070002854605469305800292
:10050000014506C622C4EF10E00385471307000229
:10051000854609469305800213058002EF1080028C
:1005200085471307000285460D4693058002130593
:100530000005EF102001854713070002854611468C
:100540009305800213058007EF00D07F85471307CE
:10055000000285461546930580021305000AEF0048
:10056000707E854713070002854619469305800271
:100570001305800CEF00107D8547130700028546A8
:100580001D46930500050145EF00D07B8547130705
:100590000002854621469305000513058002EF0001
:1005A000707A8547130700028546254693050005A6
:1005B00013050005EF0010798547130700028546F3
:1005C00001469305000513058007EF00B077375704
:1005D0000000130707D081461306000293050005AB
:1005E0001305000AEF00D06837570000130747D003
:1005F000814613060002930500051305800CEF00E9
:100600003067138481820346040085471307000284
:100610008546814513058002EF00D0720346140021
:100620008547130700028546814513050005EF0045
:1006300070710346240085471307000285468145F3
:1006400013058007EF001070034634002244B240C7
:10065000854713070002854681451305000A4101BD
:100660006F00506E7D159946B367D502130780025F
:10067000BD65938505A6B346D502B387E702B38669
:10068000E60203A6018293F7F70F1387018205069E
:1006900093F6F60F63C5C50210C310431D6793059B
:1006A000F75263C1C50213950701416741819386E3
:1006B00066047D1713064501B6856F00B01D232023
:1006C0000700E1BFE5759385F5AC2E961307E75259
:1006D0006369C7001395070141819386660401474A
:1006E000D1BF82809307F5FF994633E5D702130700
:1006F0008002B3C6D702B386E6023305E50293F65D
:10070000F60F938666040147B6851375850F1306A9
:1007100045016F003018411122C426C206C6A54704
:10072000AA841384C18263E7A70403450400130865
:10073000800285470505330505031307000285463A
:1007400026868145EF00106003470400938781826D
:10075000BA972380970005072300E40003470400AD
:100760008D4763F4E70023000400B2402244924422
:1007700041018280A9476319F5020345040013086B
:1007800080028547050533050503130700028546EA
:1007900001468145EF00105B034704009387818287
:1007A000BA972380070045BFAD476314F50483471C
:1007B00004001307F00FFD1793F7F70F6389E702A3
:1007C0002300F4000345040093878182AA9713084D
:1007D0008002050533050503238007001307000287
:1007E0008547854601468145EF00D05585BF8D4739
:1007F000C1BFB147E314F5F6138781829387418225
:100800000346070083C60700631CD604034617008F
:1008100083C617006316D6040346270083C6270045
:100820006310D6040347370083C73700631AF70203
:1008300001479306000A1306800C930580070145C3
:10084000EF00500537570000130787CE8146130687
:100850000002930580070145EF009041BD31FDBDC9
:1008600001479306000A1306800C93058007014593
:10087000EF00500237570000130747CF8146130699
:100880000002930580070145EF00903E9387F182B7
:1008900003C7070005072380E700C9B539718545FF
:1008A0001305500606DE22DC26DAEF10D0193725B4
:1008B0000140130480049307E0034C0813050580EE
:1008C000231AF10022CEB7140140EF10606985476A
:1008D0004C0813850480231AF10022CEEF104068E3
:1008E0008967938707044C0813850440231AF10095
:1008F00022CEEF10E06681450145EF10607385451B
:100900001145EF10E07289451145EF1060728D4579
:100910001145EF10E07191451145EF10607195455B
:100920001145EF10E07099450D45EF106070B54529
:100930000D45EF10E06F89679387F7073ED00544B8
:10094000B14708103ED422D602D2EF10C04A930716
:1009500060112316F100680089472307F10022C8BF
:10096000EF102070DD4768002306F100EF10606F84
:10097000E14768002306F100EF10A06EE54768002C
:100980002306F100EF10E06DE94768002306F1004F
:10099000EF10206D9307700268002306F100EF103E
:1009A000406C9307800368002306F100EF10606B32
:1009B000F2506254D254216182800545EF10404AC2
:1009C00005CD03C7518383C74183D98F13876183C3
:1009D00083460700D58F91EFB707002083C707082C
:1009E000858B93B71700850723ACF1C48547230097
:1009F000F7000545EF10A048730020300945EF10BF
:100A000020460DC113873183834707009306F00FFB
:100A1000FD1793F7F70F6389D70009452300F70007
:100A2000EF10E045730020308547C5BF1145EF103A
:100A3000204305C113873183834707008546850717
:100A400093F7F70F63E9F6002300F7001145EF1065
:100A500000437300203023000700CDBF2145EF1075
:100A6000204005C1138721838347070095468507EA
:100A700093F7F70F63E9F6002300F7002145EF1025
:100A800000407300203023000700CDBF4145EF1028
:100A9000203D15CD9386518303C7060083C741834C
:100AA000D98F03C76183D98F85E39387118303C7E8
:100AB000070013761700050623AAC1C405070546DB
:100AC0002380C6002380E7004145EF10403B7300C0
:100AD000203013050004EF10A03815C513872183BB
:100AE000834707009306F00FFD1793F7F70F638A0C
:100AF000D7002300F70013050004EF1040387300FF
:100B000020309547FDB713050002EF10603565D919
:100B10001386418303C7518383470600D98F03C7D8
:100B20006183D98F95E3138701838346070093F789
:100B3000160093B71700850723A8F1C485068547DB
:100B40002300F6002300D700130500027DB70965D6
:100B5000EF10003119C505470965238CE182EF10BC
:100B600000327300203013578500B70702602380DE
:100B7000E7001375F50F2380A7008280B707026096
:100B800083C70700411193F7F70FA307F10003454F
:100B9000F1004101828035711306C0038145C80010
:100BA00006CF22CD26CB4AC94EC752C556C302C076
:100BB000930AC10002C202C4EFF08FE4714681457E
:100BC0005685EFF0EFE3130A8102714681455285A5
:100BD000EFF00FE3854513050010EF10E064854545
:100BE00013058006EF102066B7140140F1770D441D
:100BF000E149938737738A85138504402310F100F8
:100C00004EC422C2EF10C03537250140930700F8CB
:100C10008A85130505802310F1004EC422C2EF100F
:100C200020348A85138504400569231021014EC4B0
:100C300022C2EF10E032C1478A85138504401309B0
:100C400009803EC42310210122C20569EF10403102
:100C50009305098013850440EF10A03C85473EC6EC
:100C6000BD473ECAC800916722D8CAD4BED8D6DCD8
:100C7000D2DE02C802CC02CE02D002D202D402D608
:100C800002DA02DC02DE82C082C282C482C682C86C
:100C900082CA82CE82CC82D082D282D682DAEF1011
:100CA000A01E85450145EF10C029FA406A44DA4488
:100CB0004A49BA492A4A9A4A0D61828005653971C2
:100CC00085451305958006DE22DCEF10C05791673D
:100CD000231AF10037150140E1473ECE4C088D47FD
:100CE000130505C03ECCEF10A02737340140930711
:100CF000F0083EC42C0093074006130504C03EC60E
:100D0000EF102058930700062310F102B7073200B6
:100D100091070C10130504C03ED223150102EF10F9
:100D20004062130504C08545EF10B006130504C0EA
:100D30008145EF105009130504C08545EF10D0061A
:100D4000130504C08545EF101003F2506254216171
:100D50008280930740069375F50F63F4A70093050F
:100D6000400637350140130505C06F10900A9357B0
:100D70008500135755001377077E93F707800D8181
:100D8000D98F7D895D8D420541818280239DA1821D
:100D9000B70700202391B7088280B70702601307C6
:100DA000A002A38FE7FE135785002380E700137589
:100DB000F50F2380A700135786002380E7001376E2
:100DC000F60F2380C7001307B002A38FE7FE13D7E7
:100DD00085002380E70093F5F50F2380B70013D734
:100DE00086002380E70093F6F60F2380D7001307D1
:100DF000C002A38FE7FE8280B70702601307A0023C
:100E0000A38FE7FE135785002380E7001375F50FC6
:100E10002380A700135786002380E7001376F60F80
:100E20002380C7001307B002A38FE7FE13D7850006
:100E30002380E70093F5F50F2380B70013D78600D2
:100E40002380E70093F6F60F2380D7001307E00214
:100E5000A38FE7FE8280411122C426C29306F00EC2
:100E6000935485001374F50F1306F00E8145014568
:100E700006C625371307000FB70602609307000F59
:100E8000FD1723809600C20723808600C183EDFBF7
:100E90007D17420741837DF3B240224492444101D1
:100EA0008280011106CE22CC26CA4AC8013DE53116
:100EB000370402609147A30FF4FEC931C1312AC63D
:100EC00075392A896539B245AA843755000013055A
:100ED00085D0EF20A03737550000CA85130585D28D
:100EE000EF20C03637550000A6851305C5D3EF2087
:100EF000E03513052003EF10900E93076003A30F56
:100F0000F4FE230004001306A003A30FC4FE9547BC
:100F10002300F400930700FBA30FF4FE230004005A
:100F2000130700FC2300E400930720FBA30FF4FE4B
:100F3000B1462300D4002300D4002300040093070B
:100F400030032300F4002300F400930570FBA30F8B
:100F5000B4FE230004009305B0FBA30FB4FE1303FB
:100F6000F00323006400A30FE4FE1307C002230074
:100F7000E400130720FCA30FE4FE05472300E40070
:100F8000130730FCA30FE4FEB54823001401130738
:100F900040FCA30FE4FE130700022300E400130744
:100FA00060FCA30FE4FE0D472300E400930500FD61
:100FB000A30FB4FE930540FA2300B400930510FA82
:100FC0002300B4008155A30FB4FE4158230004014F
:100FD000A5452300E4002300B4002300E40023001F
:100FE000E40041452300A4009305D0022300B4008F
:100FF000130730042300E400230064002300F400FE
:101000002300140139472300E400930490022300D5
:10101000940093082003230014018558A30F14FFA4
:10102000230004012300D4002300A4002300E400D3
:101030002300E40029472300E4002300B400230038
:10104000F400930750042300F4002300C400D147A8
:101050002300F400E5472300F40093071003230066
:10106000F400930770032300F40093071002A30F0A
:10107000F4FEC547A30FF4FE13054006EF102076DB
:101080000145D13BA30F94FEF2406244D244424951
:1010900005618280011122CC4AC84EC652C456C294
:1010A00006CE26CAAA892E84328A3689BA8AF531B2
:1010B00063768902F2406244D2444249B249224AEC
:1010C000924A0561828085045685C204693CC180CC
:1010D000E37B9AFE050442044180D9BFCE84CDBF94
:1010E00013D816009307000F338807416361A838AF
:1010F000958F63EEB7361301019C232C8162232A5E
:10110000916223282163232631630116232E116265
:10111000232441632322516323206163232E7161C1
:10112000232C8161232A91612328A1612326B161A7
:10113000C147BA89AE842A841379F60F6393F610F7
:10114000130A7400938AF4001306001881450A8577
:10115000420AC20AEFF0CF8A135A0A0193DA0A014F
:10116000638C0908D686A68552862285956A353114
:1011700012098144938A0ADCE14BB70C0020414BF1
:1011800033847403B3079900D69703CD0700214A2F
:101190000A9493178D01E18763D4070803D52C08BF
:1011A0007D1A420A060D135A0A01EFF0DF9B137DE8
:1011B000FD0F0D04E31F0AFC8504E39364FD832007
:1011C000C163032481638324416303290163832969
:1011D000C162032A8162832A4162032B0162832B4D
:1011E000C161032C8161832C4161032D0161832D39
:1011F000C160130101648280D6865286A68522854D
:10120000E53EEFF0BF97014B930B0018EFF01F97EF
:10121000B30761012380A700050BE3197BFF99B792
:101220006385090003D5A183A5BF83470400034557
:101230001400C2072205C98F034524005D8D053EB9
:1012400085B7E1476396F610930AB400138A7401D8
:101250001306003681450A85C20A420AEFE05FFAAA
:1012600093DA0A01135A0A0163820908A685D28615
:10127000568622851D36930700183309F902156C2E
:101280008A84814C130C0C3AB70D00201359390095
:10129000139B0C0193070003135B0B01E381FCF22A
:1012A000330799016297137B1B00834A0700A14B08
:1012B00063030B00914BC20B2684014A93DB0B01A5
:1012C00013978A0161876357070403D52D08050A20
:1012D000420A860A135A0A01EFF0FF8893FAFA0FBE
:1012E0000D04E36F7AFD850CC9045DB7D28656867E
:1012F000A68522851136EFF07F88014B930B0036CF
:10130000EFF0DF87B30761012380A700050BE31926
:101310007BFFA9BF6385090003D5A1834DBF631F70
:101320000B00034704000345140042072205498FC0
:1013300003452400598DEFF09FA351BF034764007C
:101340000345740042072205498F03458400DDB739
:1013500093070002639BF60C130AF400938AF401CE
:101360001306006081450A85420AC20AEFE05FE980
:10137000135A0A0193DA0A0163820906D686A68502
:1013800052862285996AEFF05FA11A098144938AF7
:101390000A54E14BB70C0020130B00043384740390
:1013A000B3079900D69703CD0700214A0A949317F3
:1013B0008D01E18763D9070403D52C087D1A420A01
:1013C000060D135A0A01EFF00FFA137DFD0F0D04FD
:1013D000E31F0AFC8504E39364FDD5B3D6865286E9
:1013E000A6852285EFF05FA1EFF04FF9014B930B3B
:1013F0000060EFF0AFF8B30761012380A700050B91
:10140000E3197BFFA5BF6385090003D5A1837DB7E1
:101410008347040003451400C2072205C98F034512
:1014200024005D8DEFF0BF9451BF032481638320BE
:10143000C16383244163032901638329C162032AB1
:101440008162832A4162032B0162832BC161032CD9
:101450008161832C4161032D0161832DC16037556A
:101460000000130505D5130101646F10305E828002
:10147000557126DB4AD94ED7AA84B2892E89130624
:1014800000088145080822DD5ECF3A84BEC306DF2E
:1014900052D556D35AD162CDB68BC2C5C6C7EFE07E
:1014A0003FD613F779FFC147630DF700930700029A
:1014B0006389F90037550000CE85130505DAEF1072
:1014C000F058D401228693054006080836C6EF106E
:1014D000D06113D719009307000F131B0701416A4E
:1014E000338CE740135B0B010008B38A3741130AC2
:1014F0000A808347040089EFFA506A54DA544A5943
:10150000BA592A5A9A5A0A5BFA4B6A4C6961828024
:1015100063779C004E99420913590901814463F78E
:101520002A015285EFF03F930149814403460400AC
:101530002685DA945E87CE86CA85C2045536C18078
:10154000050445BF3A8837570000BE861307C7D940
:10155000B287428631BF797185451305000806D6EA
:1015600022D4EF00305085454145EF00D04D9147E2
:101570002312F1008D473EC44C00E147371501406E
:101580003EC6EF00F01DA1472312F1004C00930767
:101590008004371501403EC6EF00901CF1673724E8
:1015A0000040938707203EC80C08B7070C001305BE
:1015B00004C03ECC02CA231E0100EF10E00837052C
:1015C000024085451305054AEF003001130504C0AC
:1015D0008545EF100015B250225445618280397163
:1015E0008545094506DE22DC26DA37040240EF0095
:1015F000B043130504498125938741803EC4C14708
:101600003EC6B7240040930700084C00938444C0B2
:101610003ECC130504498D673ED426C202C802CAD7
:1016200002CE02D002D202D6EF00A0771305044A00
:101630001925938701853EC4930700403EC84C009E
:10164000930700021305044A26C202C63ED2EF00E9
:101650004075F2506254D254216182800111854557
:10166000114506CEEF00303E85454145EF00B03DC7
:1016700089672312F1008D473EC44C00C1473715DE
:1016800001403EC6EF00D00DF2400561828001119D
:1016900022CC2A84370502401305054A06CE2EC601
:1016A000EF00E07413070040098F83D6C18342071F
:1016B000418301456384E602B2459387C1830145B6
:1016C000138601859308F03F83D607006388E60000
:1016D00013180501135808016366B800F24062440C
:1016E00005618280B29683C606003308A4002300F9
:1016F000D80083D607008506C206C18263E6D800FB
:101700002390D7000505C9B723900700E5BF37052B
:10171000024041111305054A06C6D12D930700402A
:101720003385A74003D7C183420541816368E50043
:10173000198DB2404205418141018280998F3E95C9
:10174000CDBF411122C43714004085451305044024
:1017500006C6EF00D06C05C583D7E183A1661305EB
:101760000440D58F8545239FF182EF00106D13054E
:1017700004402244B240814541016F00D05FB24035
:10178000224441018280130101BD094523261142F3
:101790002322914223202143232C4141232A5141DA
:1017A00023248142232E3141232861412326714184
:1017B00023248141EF00900AEF10000071651305AA
:1017C0000520EF10A00483A5818037850000130554
:1017D00005CCEF10B027EFF0CFEC13058002EFF04F
:1017E0004FD7EFE0FFD0EFE01FBED53BAD3337253D
:1017F000004005469305000C130505C0EF0030744A
:10180000EFF0CF89A13D0546896537150140EF000E
:1018100090011305803EEF00907CB757000083AA2B
:1018200087CDB7040020938404003704002083C7C9
:10183000E182B5EF83C7D1828DC7C1650965FD150A
:101840001305358EEFF08FD40145EFF0CFE0EFE0D8
:101850003FCAA38A0182238A0182A3860182A38BC5
:10186000018283C7818399C703451408238C0182B1
:10187000EFE07FEA83C73183994603C72183B387AB
:10188000D702A697BA9703C7070003C56180A300D4
:10189000E408138C61806304A700EFE0BFE4034514
:1018A0001408EFE03FDC834714082300FC00130515
:1018B0000019EF00D072A13D2A8C35D9956783D7E6
:1018C000878D1306E03F8145130521002310F100A9
:1018D000EFE01F93E2850A855D3B01479306800C8C
:1018E0001306000F9305000A0145EFF0AFFA3785A4
:1018F00000008A85130505CDEF105015B78500004F
:10190000938505CE0A85EFE03F9A05E93787000009
:10191000130787CE8146130600029305000AEFF0F5
:101920003FB55685EFE05FB61305007DEF00306BE5
:1019300013050000EFE05FB5CDBD3787000013074A
:1019400047CF8146130600029305000A0145EFF0D8
:101950003FB2E1BDB71702409843B706FFF8411107
:101960001367170098C3D84337060200758FD8C392
:101970009843B706F7FEFD16758F98C39843B706D0
:10198000FCFFFD16758F98C3D843B70681FFFD167F
:10199000758FD8C39843B70600ECFD16758F98C3B2
:1019A0003707FF0098C723A6070202C402C6984360
:1019B000C166558F98C3B716024005679C42F18FE8
:1019C0003EC6A24785073EC4B24781E7A247E397D8
:1019D000E7FEB71702409C431397E70063570706DB
:1019E00085473EC632478547631FF704B717024055
:1019F000D843B706C1FFFD16D8C3D843D8C3D843D0
:101A000013670740D8C3D843758FD8C3D843B706E8
:101A10001D00558FD8C39843B7060001558F98C352
:101A2000984393166700E3DD06FED843B7160240DD
:101A3000719BD8C3D84313672700D8C32147DC4222
:101A4000B18BE39EE7FE4101828002C661BF411176
:101A500022C437540040930550521305048006C633
:101A600026C24AC0EF00105135C513050480EF00AF
:101A7000104F9387E18303D70700AA841384E1837F
:101A80004207418763480704035704009306F01890
:101A900063E8E60437190040814513050940EF006B
:101AA000F03683570400C207C18391E785451305CB
:101AB0000940EF00502C83570400C207C1831387ED
:101AC0001700420741832310E4001387C1C5BA976A
:101AD00023809700B240224492440249410182800F
:101AE00003D70700A166558F2390E700E5B701A053
:101AF00001A001A001A001A001A001A001A001A0DE
:101B000001A001A001A001A001A001A001A001A0CD
:101B100001A001A001A001A001A001A001A001A0BD
:101B200001A001A001A001A001A001A001A001A0AD
:101B300001A001A001A001A001A001A001A001A09D
:101B400001A001A001A001A001A001A001A001A08D
:101B500001A001A001A001A001A001A001A001A07D
:101B600001A001A001A001A001A001A001A001A06D
:101B700001A001A001A001A001A001A001A001A05D
:101B800001A001A001A001A001A001A001A001A04D
:101B900001A001A001A001A001A001A001A001A03D
:101BA00001A001A001A001A001A001A097F1FF1FC9
:101BB000938141CD176100201301C14417650000D6
:101BC0001305053A97E5FF1F9385C54313860182E8
:101BD00063FAC5008322050023A055001105910575
:101BE000E3EAC5FE13850182938501F86377B500AA
:101BF000232005001105E36DB5FEFD42739002BC84
:101C0000ED4273904280B76200009382820873A015
:101C1000023097E2FFFF9382624293E232007390B8
:101C20005230EFF03FD397020000938202B67390D8
:101C30001234730020301C4141677917F98F1CC1A1
:101C4000232005002322050023240500B7070240B6
:101C500023260500138787006317E500D843136721
:101C6000F700D8C382801387C7016316E500D84305
:101C70001367070FFDB7138707036318E500D84301
:101C80008566938606F0558FE9BF13874704631571
:101C9000E500D843BD66C5BF138787056316E50019
:101CA000D843B7060F00C5B71387C7066316E5000C
:101CB000D843B706F000C1BF138707086316E500D5
:101CC000D843B706000FC1B7138787406319E500F3
:101CD00003A747401367F70023A2E74082801387DA
:101CE000C7416317E50003A747401367070FEDB728
:101CF00093870743631BF500B707024003A74740DC
:101D00008566938606F0558FC1BFB70702401387DB
:101D100047446316E50003A74740BD66EDB7138748
:101D200087456317E50003A74740B7060F00E1BFEB
:101D30001387C7466317E50003A74740B706F000BF
:101D4000D9B7138707486317E50003A74740B706CD
:101D5000000F55BF138707496319E50003A7474DD7
:101D60001367F70023AAE74C82801387074A63179B
:101D7000E50003A7474D1367070FEDB71387074B20
:101D80006319E50003A7474D8566938606F0558FD6
:101D9000D1BF1387074CE319E5FC03A7474DBD6688
:101DA000FDB71C4161773D0794517D8F9C45D58FD0
:101DB0009449D58FD449D58F944DD58FD44DD58F97
:101DC000D451D58F9455D58FD98F1CC1DC455CC1BA
:101DD0009C411CC5DC415CC582801C4189C593E7E0
:101DE00017001CC1828041677917F98FDDBF484118
:101DF0004205418182805841032805004C45370641
:101E00000140930706403E979346F8FFB1C58325EE
:101E10000640F58D2320B640D043F18ED4C3144341
:101E2000B3E6060114C3184190479346F7FF758E39
:101E300090C7D047F18ED4C7144541466399C60078
:101E40009447D98E94C7D447558FD8C78280B69708
:101E50009443558F98C382801C43F58F1CC38280A6
:101E6000B70701401387074083A70740584B698F86
:101E700009C77D8D3335A000828001458280B70778
:101E8000014023AAA740828014455C41584503289D
:101E9000C502D58FD98F1849370600A0D98F584968
:101EA000D98F184DD98F584DD98F1851D98F585176
:101EB000D98F1855D98F1859B3E70701D98F184111
:101EC0000A073A961CC2A1476396F6001C4293E7A4
:101ED00007041CC254598C4E9C42CD8FCC429205B3
:101EE000CD8F8C46A205CD8FCC46C205CD8F8C4AB6
:101EF000D44AD205CD8FE206D58F5CC291676319B3
:101F0000F802145D904E9C42D18FD0421206D18FC0
:101F100090462206D18F904AD44A5206E206D18FCB
:101F2000D58FB70600A09386461036971CC38280D3
:101F3000B70700A0938747103E97B7070010FD171B
:101F4000F5B7B70700A00A053E951C4189C593E780
:101F500017001CC18280370710007917F98FD5BF91
:101F60009C4513F7070113F8F70001C7D841336800
:101F7000E80083D5050013F7F50F39C318418146F2
:101F8000854E3D4F930F800293028004214E33967D
:101F9000DE00B3F8C50063111603939826003313CF
:101FA0001F011343F3FF3377E300B318180133E73E
:101FB000E800639FF70550C98506E39AC6FD18C17E
:101FC0001307F00F6375B70454412146854E3D4F0A
:101FD000930F800293028004414EB398CE0033F7F2
:101FE00015016392E8021317260001173313EF005F
:101FF0001343F3FFB376D3003317E800D98E639D04
:10200000F701232A15010506E319C6FD54C1828094
:10201000E39457FA10C94DB7E39757FE23281501EB
:10202000DDB74CC9828019C20CC982804CC982803C
:1020300013F7C50F93F73500B7050140BA959445DE
:102040008A073D473317F7001347F7FF758F98C589
:1020500098453315F500598D88C5828023A0A18449
:1020600082809387018494430347050089E6834770
:102070002500920731A8944305466391C60483471F
:1020800025000346150092076314D60093E707F86E
:10209000B7E600E093F7F70FBA962380F64085463F
:1020A000935757003397E6005441ADC69387070412
:1020B0008A07B7E600E0B69798C382808C438946CA
:1020C0006393D50283461500834725006365D600D8
:1020D0008A06B69779BF9386E6038A06B69793F782
:1020E000F70F920765B790438D46631ED60083466F
:1020F0001500834725006364D6008606D9BF938602
:10210000C6078606E1BF94439147E39AF6F88347F2
:10211000150085B79387070661BF371702405C43F8
:102120009146B18B6385D700A1466386D706B71762
:102130007A00938707201CC1371602405C4237079C
:1021400000201307C7009183BD8BBA9783C6070091
:102150001C41B3D7D7005CC15442A1829D8ABA9674
:1021600083C60600B3D6D70014C55442AD829D8AFB
:10217000369703470700B3D7E7005CC55842398359
:10218000937637001387C180369703470700B3D78C
:10219000E7021CC982805C4354434167C983F98EBE
:1021A00037F7FF1F0327C770BD8B89071316170169
:1021B00063480600454601476392C702C94739A8EC
:1021C00009476389E7023D476388E702414763881F
:1021D000E702454601476393C700C14785E6B74616
:1021E000024083A60680C18A8DC6B7167A00938600
:1021F000062025A00147D9B70547B547C5B7014710
:10220000BD47E9BFB7160240D4421396E600E35E2D
:1022100006FCB7163D0093860690B387D7021CC113
:1022200001DF1C41858301BF99C5371702405C4B14
:102230005D8D48CB8280B7170240D84B1345F5FF20
:10224000798DC8CB828099C5371702401C4F5D8DB0
:1022500008CF8280B7170240984F1345F5FF798D5C
:1022600088CF828099C5371702405C4F5D8D48CF7B
:102270008280B7170240D84F1345F5FF798DC8CF3C
:1022800082808357050037370140930607C0C20795
:10229000C1836300D504B7060040630CD502938662
:1022A00006406308D502B716004013860680630215
:1022B000C502938606C0630ED50013070740630A64
:1022C000E50037570140930607C06304D500631744
:1022D000E50003D7250093F7F7F8D98F37170040AB
:1022E000630DE500130707406309E50093F7F7CF97
:1022F00003D76500C207C183D98F2310F50083D7A8
:1023000045002316F50283D705002314F502B737DD
:102310000140138707C0630EE50093870740630AF7
:10232000F500B7570140138707C06304E500631643
:10233000F50083C785002318F5028547231AF500A9
:1023400082808357050265771307F7CFC207C183E1
:10235000BD9BC207C1832310F50283570502835634
:10236000450003D88500C2071396060183568501F0
:10237000C18393F7F7FD758F83D605004182A206CE
:10238000558F83D6250042074183B3E606019206A6
:10239000D58FB7360140C207138806C0C183630ECC
:1023A000050193860640630AD500B756014013889D
:1023B00006C0630405016311D50483D6A50093F715
:1023C000F7F703D8C5009206D58F83D64500C2071C
:1023D000C183920693F7F7FBD58FFD769386F63F80
:1023E000F18E03D6E500C207C183336606010A06F3
:1023F000D18E1396060141822312C500231CE500ED
:1024000003D76500231CE5022310F5028280835761
:10241000050203D88500C207C18393F7F7EFC2070F
:10242000C1832310F50283570502835645000357E5
:10243000C501C20713960601420783D605004183F2
:102440001377C7F8558F83D62500C18393F7F7DF3D
:10245000B3E60601A206D58FB7360140C20713883E
:1024600006C04182C183630E050193860640630A5C
:10247000D500B7560140138806C0630405016312F6
:10248000D504FD769386F67FF58F83D6A50003D815
:10249000C500A206D58F83D64500C207C183A20618
:1024A00093F7F7BFD58FF576FD16F18E03D6E500CD
:1024B000C207C183336606011206D18E1396060148
:1024C00041822312C500231EE50003D76500231EA9
:1024D000E5022310F502828003570502FD77FD1700
:1024E000F98F2310F50203580502835645008357E0
:1024F000C50165771396060183D605001307F7CF4C
:102500007D8FF977A206FD17558FB3F7070183D6A4
:10251000250003D8850042074182B3E60601B206D2
:10252000D58FB7360140C207138806C04183C183E7
:10253000630E050193860640630AD500B756014035
:10254000138806C063040501631CD500F176FD16EF
:10255000F18E03D6C5001A06D18E1396060141826C
:102560002312C500231EE50003D765002310E504F0
:102570002310F50282808357050091C593E7170069
:102580002310F5008280C207C183F99BC207C18373
:10259000C5BF8357450491C52167D98F2312F50420
:1025A0008280C607C583DDBF8357050091C593E7C9
:1025B00007082310F5008280C207C18393F7F7F75D
:1025C000C207C183FDB703578501FD779387F77F66
:1025D000F98FA205CD8FC207C183231CF50082802D
:1025E0008357C501C207C183DD9BDD8D231EB50066
:1025F00082800357C501FD779387F77FF98FA20586
:10260000CD8FC207C183231EF50082802312B5023D
:102610008280231CB5028280231EB50282808357EC
:1026200005010355C500ED8F4205418189C76D8DB8
:102630003335A00082800145828093C5F5FFC20535
:10264000C1812318B500828083560501F577FD17F7
:10265000F58F83D66500397122DC06DED58F03D76E
:10266000C5002318F5008356C500FD779387379F73
:10267000F58F83D645002A842EC6D58F83D6850054
:10268000D58F83D6A500D58F2316F5008357450136
:10269000C207C18393F7F7CFD98F231AF5006808D3
:1026A000EFF0BFA7B747014093870780B245631E8D
:1026B000F404A2578356C4006547B387E702C206F5
:1026C000C186984163D5060406070356C400420636
:1026D000B3D7E702130740064186B3D6E702B3F744
:1026E000E7029206635706028E0793872703B3D744
:1026F000E70213F77700B367D700C207C18323143B
:10270000F400F250625421618280925765B70A0743
:102710006DBF920793872703B3D7E702BD8BD58F91
:10272000E9BF81C98357C5000967D98F2316F50012
:1027300082800357C500F977FD17F98FC5BF83570E
:10274000450109C6DD8D231AB500828093C5F5FFCA
:10275000FD8DD5BF93F5F51F2312B500828003557B
:1027600045001375F51F8280035505006D8D3335C7
:10277000A000828013F7F50F85461583B397B60046
:102780006313D7020357C500F98F035705000145AE
:102790004207418381CB0545A181B315B5006D8FFB
:1027A0003335E000828089466315D7000357050161
:1027B000E1BF03574501C9BF83A7818037177A005E
:1027C00013070720B3D7E70293F7F70F2383F184AA
:1027D0001307803EB387E7022392F1848280B7F724
:1027E00000E0D8438146799BD8C303D741843306A0
:1027F000A70290CBD4CB98431367170398C3D84351
:10280000058B75DF9843799B98C38280797122D4B8
:102810002A8411658545110506D6EFF0DFA29307DE
:1028200000202312F100371501408D473EC44C00B3
:10283000E147130505803EC6EFF08FF222C837440A
:102840000140B70708000C08130504803ECC02CAFB
:10285000231E0100D53B130504808545D935B250B0
:10286000225445618280011126CAB744014022CC1E
:102870004AC84EC606CEAE8932890144938404808C
:10288000634A2401F24062444A85D2444249B24933
:1028900005618280930500042685F93565DDB387DF
:1028A00089008385070026850504C205C1815D3541
:1028B000C1BF138701811C43938601F83E95636B6A
:1028C000D500B78600209386068063E5A60008C37E
:1028D0003E858280FD57EDBF4111370780007D178F
:1028E00013D8750126C2935475013373A70093F46E
:1028F000F40FB376B7004AC01378F80F1359F501F7
:1029000006C622C4FD819A8726854A86131E330097
:10291000939E3600B3880441630AB90E6350100DCC
:10292000630408149307F00F638BF414B7070004D3
:10293000B3EEFE00ED4763C1172993070002B3878A
:102940001741B397FE00B3D81E01B337F000B3E7C9
:10295000F800B307FE4013975700635E071837046B
:1029600000047D147D8C2285EF00F0066D15B317F1
:10297000A4006348951A058D13041500130700027F
:10298000018F3397E7003337E000B3D78700D98F43
:10299000814413F7770019C713F7F70091466303D3
:1029A000D700910713975700635B0714850413073B
:1029B000F00F4A866383E4169A07A58313F5F40F94
:1029C000B2402244A6079314750113D59700458D94
:1029D0007E0692440249518D410182806399080A22
:1029E000138714001377E70F63170714639004220B
:1029F000630D0E1EE3860EFCB307DE4113975700EE
:102A000063500722B387CE412E8961B7635C100BF8
:102A1000630E08089307F00F6383F406B7070004FA
:102A2000B3EEFE00ED4763C9171F93070002B3879B
:102A30001741B397FE00B3D81E01B337F000B3E7D8
:102A4000F800F297139757006357070A8504130796
:102A5000F00F6384E40CB706007E13D71700FD1651
:102A6000858B758FD98F35B7638D0E08FD18B30729
:102A7000DE41E38208EE9307F00FE39DF4EA630D75
:102A8000030801461305F00FB707400015BF3307D1
:102A90009840EDE863020E147D176308071893074A
:102AA000F00F6319F80E2E893683D1BF638B0E04A5
:102AB000FD18B307DE01E38708F89307F00FE393EF
:102AC000F4F675BF63950808850413F7E40F6313E4
:102AD000071263170510630F0E14E3830EEEB3079E
:102AE000DE0113975700814463570700370700FC46
:102AF0007D17F98F854413F77700E31F07E813D399
:102B000037009307F00FE38CF4F693179300A58337
:102B100013F5F40F4A866DB54A861305F00F814709
:102B200045B5370700FC7D17F98F13F77700898CBF
:102B3000E31407E6E9B73304DE419317540063C397
:102B4000070CE31204E201460145814795BD3307B6
:102B50009840ADC49307F00FE308F8F4B7070004FA
:102B6000336EFE00ED4763CCE70C93070002998FAC
:102B7000B317FE003357EE00B337F000D98FF69746
:102B8000C284C9B59307F00FE30FF8F0B70700044C
:102B9000336EFE00ED4763C3E70893060002998E8B
:102BA000B316DE00B357EE003337D000D98FB387AA
:102BB000FE40C2842E8945B3854761BB630E0E0675
:102BC0007D17B307DE01C284E30E07E69307F00F1B
:102BD000E31AF8F8368365B53683C2842E8915B7B3
:102BE000E3040EECE38D0EE869BD638D0E022E86C4
:102BF000B687F9B39307F00FE381F4F2B307DE0170
:102C00008583D5BD3384CE412E89B1BBE31C0EFC38
:102C1000E3890EE62E8949BD854725B5854741BF25
:102C2000E39B07EC0146814761BBB387CE41C28479
:102C30002E8915B3B68769B33683C284D9B5854763
:102C40003DBF3971935775014AD856D25ECE931A5B
:102C500095001359F50106DE22DC26DA4ED652D451
:102C60005AD093F7F70F93DA9A00CA8B6382071250
:102C70001307F00F6384E7128E0A37070004B3EAE4
:102C8000EA00138A17F80144014B93D77501939416
:102C9000950093F7F70FA58093D9F501FDC71307AA
:102CA000F00F6387E7028E04938717F83707000455
:102CB000D98C330AFA408146558C17570000130708
:102CC00067040A043A941C4033493901BA97828751
:102CD000130A1AF0F9E88946558C175700001307B4
:102CE00067060A043A941C4033493901BA9782872F
:102CF00001491307F00FB707400013959700F250F2
:102D000062549317770125817E095D8D3365250116
:102D1000D2544259B259225A925A025BF24B216163
:102D200082801307F00F8147C9BFA68ACE8B368BEE
:102D300089476309FB1A8D47E30CFBFA8547630853
:102D4000FB0A1307FA0713F91B006355E01293F708
:102D50007A0099C793F7FA0091466383D700910AE6
:102D600093974A0063D90700B70700F8FD17B3FA35
:102D7000FA0013070A089307E00FE3C4E7FA9397F2
:102D80006A00A5831377F70F8DBFB1E48546A9B715
:102D900063940A021144014A054BC5BD63990A00B8
:102DA0002144130AF00F094BCDB58D4631B731449C
:102DB000130AF00F0D4BD1BD56852EC62929930756
:102DC000B5FFB39AFA009307A0F8338AA7400144ED
:102DD000014BB2455DBD2685FD2E1307B5FFB30738
:102DE000AA00B394E400138A67078146F1B513F98A
:102DF0001B000147814711B74166139554007D16AA
:102E000093570501698E63FA9A0AB3D5FA027D1ABF
:102E1000D68601473388C502B3F6F602C206558F3F
:102E2000637B07012A979386F5FF6368A70A637699
:102E3000070BF9152A9733070741B356F702337783
:102E4000F702B38AC6029317070163FB5701AA97DB
:102E50001387F6FF63E1A70863FF5707F916AA97E0
:102E6000C205B38A5741D58DB33A5001B3EA550133
:102E7000CA8BC1BD8546998E11C76D4601478147F2
:102E8000E34DD6E6130AEA09339A4A01B3D7DA00CA
:102E9000B33A4001B3E7570113F7770019C713F7A7
:102EA000F70091466303D7009107139757006348D3
:102EB00007029A07A583014789B593D61A00B3D5AF
:102EC000F6021397FA0141833388C502B1B7CE8B5E
:102ED000368B814AB1BDBA8661B7B685A9BF0547B1
:102EE000814721BD13F91B001307F00F814731B54E
:102EF000797122D4135475014ECE52CC931995009A
:102F000006D626D24AD056CA5AC81374F40F93D99B
:102F10009900135AF50169C49307F00F6308F40E82
:102F20009397390037070004B3E9E700130414F856
:102F30008144014B13D77501939A95001377F70FCE
:102F400093DA9A0013D9F50145CF9307F00F630C7C
:102F5000F7028E0A130717F8B7070004B3EAFA005E
:102F60003A94014633452A01BD47AA8693051400C9
:102F700063E09710175700001307C7E08A04BA945C
:102F80009C40BA9782871304F40F63960A0C93E46B
:102F900024000946C1BF01451307F00FB7074000E1
:102FA000B2502254A6075E07A5837E05D98F92549E
:102FB0000259F249624AD24A424B5D8D4561828094
:102FC000CA86D689328B8947630FFB088D47E30495
:102FD000FBFC854736856310FB1A01478147C9B75B
:102FE000639D090413D77501939A95001377F70F22
:102FF00091440144054B93DA9A0013D9F50131F756
:10300000639D0A0093E414000546A9BF6392090278
:10301000A1441304F00F094B31BF56856D2A930765
:10302000B5FF098CB39AFA001304A4F801461DBF3A
:10303000B1441304F00F0D4BF5BD4E852EC6612A29
:103040009307B5FF1304A0F8B399F900098C8144E4
:10305000014BB245C5B593E434000D4621B789470D
:10306000D286E315FBF636851307F00F81470DBFB7
:1030700041639306F3FF13D6090193D80A01B3F70E
:10308000D900B3FADA0033885703B389F80213572B
:103090000801B30A5603D6994E9733061603637395
:1030A00057011A96C167FD17B376F7003378F80019
:1030B000C206C2969399660093570701B33930014F
:1030C000E982B2979A07B3E6D900B3E9D70093979C
:1030D000490063D9070013D7190093F71900B369A2
:1030E000F7002E841307F4076350E00493F7790088
:1030F00099C793F7F90091466383D7009109939795
:10310000490063D90700B70700F8FD17B3F9F900C4
:10311000130704089307E00F63CBE7049397690054
:10312000A5831377F70FADBD8547B386E74011C779
:103130006D4601478147E345D6E61307E409339717
:10314000E9003337E000B3D7D900D98F13F7770000
:1031500019C713F7F70091466303D7009107139738
:103160005700634C07009A07A583014715BD130755
:10317000F00F814735B52E84B5B7054781470DB5AA
:1031800013577501370680009307F6FF1377F70F83
:103190009305E007B3F6A7009357F501014563F4E3
:1031A000E50099C3828082809307E0097D55E3EBB7
:1031B000E7FE93055009B3E7C60063D7E5001307A0
:1031C000A7F63395E7008280130560093307E540D1
:1031D00033D5E7008280C167637EF5029307F00F65
:1031E0001307000263ECA70097570000938787BD81
:1031F000AA9703C507003305A7408280218197570E
:103200000000938727BCAA9703C5070061473305D1
:10321000A7408280B7070001636EF5006181975770
:103220000000938727BAAA9703C5070021473305F3
:10323000A74082804181975700009387A7B8AA973B
:1032400003C5070041473305A740828039713EDA44
:103250002ED232D436D63AD842DC46DE938741812C
:1032600022CC804326CA06CEAA8409C41C4C99E30A
:10327000228589220C4454102686228536C6EF000A
:103280000075F2406244D244216182801971A2DC4F
:1032900086DEA6DA3284635B06009307B0081CC1A1
:1032A0007D55F6506654D654096182803686930661
:1032B00080202EC42ECC231AD100814519C093053D
:1032C000F4FFFD572EC82ECEBA862C00231BF1002A
:1032D000AA841929FD576355F5009307B0089CC0CF
:1032E00069D0A247238007006DBF9387418136874D
:1032F000B2862E86AA85884351BF411122C406C6D4
:103300002A842316B5002317C50023200500232295
:103310000500232405002322050623280500232A6F
:103320000500232C0500214681451305C505EFC086
:103330003FED971700009387C7D15CD09717000027
:10334000938747D41CD497170000938787D85CD401
:1033500097170000938747DB00D01CD8B240224467
:10336000410182809715000093858510A9A2411123
:1033700026C2130680069384F5FFB384C4024AC0B4
:103380002E8922C406C693854407612A2A8401CD6A
:103390002320050023222501310508C41386840655
:1033A0008145EFC0FFE52285B240224492440249A4
:1033B000410182801C4DADE3411106C622C497072E
:1033C0000000938767FA1CD5938781819C4323244F
:1033D000050423260504232805046314F500854706
:1033E0001CCD2A841D2848C02285052808C42285B2
:1033F0002D2048C448400146914501370844054600
:10340000A545E53D48440946C945C53D85471CCC11
:10341000B2402244410182808280411193878181A0
:1034200026C284434AC006C69C4C22C42A8999E31A
:1034300026854937938484048044DC40FD1763D695
:1034400007009C40B9CF8440C5BF0317C40039E7CB
:10345000C1778507232204062320040023220400C9
:10346000232404005CC423280400232A0400232C02
:103470000400214681451305C405EFC07FD8232AE7
:103480000402232C0402232404042326040422859A
:10349000B2402244924402494101828013048406CE
:1034A00071BF91454A85E13588C051FDB147232060
:1034B000F9000144E9BF797122D44AD052CC56CAEE
:1034C0005AC85EC606D626D24ECE2A8AAE8A1304C3
:1034D00085040149054BFD5B09ECB25022544A8535
:1034E00092540259F249624AD24A424BB24B456168
:1034F0008280044483294400FD1963D409000040FC
:10350000E1BF83D7C400637BFB008397E40063873C
:103510007701A6855285829A3369A900938484062F
:10352000E1BF011126CA93843500F19806CE22CC62
:103530004AC84EC6A104B14763F5F404B14463E43C
:10354000B4042A89EF10A01C9387818498433A849D
:1035500029E49387C1849C4399E781454A85EF001C
:10356000702C23A6A184A6854A85EF00B02BFD59B7
:1035700063193507B1472320F9004A85EF10401938
:1035800029A0E3DE04FAB1471CC10145F2406244C0
:10359000D2444249B249056182801C40858F63CF85
:1035A0000702AD4663F6F6001CC03E9404C031A08D
:1035B0005C406313870223A4F1844A85EF10401511
:1035C0001305B4009307440061993307F5405DDFAC
:1035D0003A94898F1CC05DBF5CC3C5B72287404049
:1035E00085BF130435007198E30285FCB305A44040
:1035F0004A85EF003023E31B35FBADBF01114AC8FC
:1036000003A9850022CC52C45AC006CE26CA4EC693
:1036100056C22E84328B368A63ED260983D7C500C5
:1036200013F7074849C704408C495848AA8AB38908
:10363000B4408D44B384E4020947B3C4E402138761
:1036400016004E9763F3E400BA8493F70740D1C3A2
:10365000A6855685F9352A890DE5B14723A0FA00DC
:103660008357C4007D5593E707042316F400F24006
:103670006244D2444249B249224A924A024B05610D
:1036800082800C484E86EF0090788357C40093F7F1
:10369000F7B793E707082316F4002328240144C84A
:1036A0004E99B38434412320240104C452896373A6
:1036B0002A01528908404A86DA85EF10A0001C448E
:1036C0000145B38727411CC41C403E992320240197
:1036D00079BF26865685EF10000E2A895DFD0C48BD
:1036E0005685EF10000395BF83D7C500717126D3AF
:1036F0004AD14ECF06D722D552CD56CB5AC95EC736
:1037000062C566C393F70708AA892E89B284B1C33C
:103710009C49A1E39305000436C621352320A90066
:103720002328A900B24615E1B14723A0F9007D5531
:10373000BA502A549A540A59FA496A4ADA4A4A4B00
:10374000BA4B2A4C9A4C4D61828093070004232A7D
:10375000F90093070002A30CF1029307000302DAB9
:10376000230DF10236CE930B5002974A0000938A44
:103770006A7B054C294B26848347040099C3639CCC
:103780007709B30C9440638D0C00E6862686CA85C3
:103790004E85AD35FD576304F51AD256E69636DAF6
:1037A00083470400638D0718FD579304140002D06B
:1037B00002D63ED202D4A301010682DC83C50400F6
:1037C00015465685EF00106313841400825731E5C7
:1037D00013F7070109C713070002A301E10613F756
:1037E000870009C71307B002A301E10683C60400DE
:1037F0001307A002638BE602B25726848146254652
:103800000347040093051400130707FD6374E606DD
:103810008DC63ED61DA0050485B733055541331529
:10382000AC00C98F3ED0A28451BF724793064700B7
:10383000184336CE634907023AD60347040093077C
:10384000E002631FF704034714009307A002631B01
:10385000F702F2470904138747009C433ACE63C13D
:1038600007023ED235A83307E04093E727003AD657
:103870003ED0E1B7B387670385462E84BA9749B730
:10388000FD57C5B7050402D2814681472546034747
:10389000040093051400130707FD6378E606F1F2B0
:1038A000834504000D461745000013052568EF0009
:1038B000705411CD97470000938747671D8D93077C
:1038C0000004B397A700025505045D8D2AD08345F7
:1038D000040019461745000013058565930414007C
:1038E000230CB102EF00105125C597C7FFFF938746
:1038F000677195E70257F2471377071009CF9107D1
:103900003ECED257D2973EDABDB5B3876703854620
:103910002E84BA97ADBF9D07E19BA107D5B7780864
:10392000970600009386C6CD4A860C104E859700F8
:103930000000E7000000FD572A8AE314F5FC8357D6
:10394000C9007D5593F70704E39407DE5255CDB3C4
:103950007808970600009386A6CA4A860C104E8502
:103960002129D1BF1C46FD171CC663D90700184E7C
:1039700063C5E700A9476393F50041AF1C422E855C
:103980001387170018C22380B7008280011122CC50
:1039900026CA4AC84EC652C406CE2A89AE89328487
:1039A000B304D6007D5A63149400014509A88345E9
:1039B00004004E864A857D370504E31645FFF24034
:1039C0006244D2444249B249224A0561828035713B
:1039D00022CD26CB4AC94EC706CF52C556C35AC1BF
:1039E000DEDEE2DCE6DAAA89AE843289368409C5F5
:1039F0001C4D99E3EFF01F9C974700009387874E7B
:103A0000639CF40C83A4490083D7C400A18BFDC739
:103A10009C48EDC793070002A304F102930700033B
:103A200002D22305F10222C6930B5002974A0000EE
:103A3000938A4A4F054C294B4A848347040099C313
:103A40006390770FB30C2441638D0C00E6864A86A1
:103A5000A6854E85253FFD576308F51E9256E696CE
:103A600036D2834704006381071EFD5713091400F3
:103A700002C802CE3ECA02CCA309010482D4834507
:103A8000090015465685EF00F03613041900C247A9
:103A900051E913F7070109C713070002A309E1045D
:103AA00013F7870009C71307B002A309E10483468F
:103AB00009001307A002638FE606F2474A84814695
:103AC00025460347040093051400130707FD637898
:103AD000E60AADCA3ECEBDA0974700009387874255
:103AE0006395F40083A4890005B797470000938786
:103AF000673DE39BF4F083A4C90039B7A6854E85E2
:103B0000ED2D09D97D55FA406A44DA444A49BA494B
:103B10002A4A9A4A0A4BF65B665CD65C0D61828043
:103B2000050421BF330555413315AC00C98F3EC88C
:103B30002289B1B7324793064700184336C6634916
:103B400007023ACE034704009307E002631FF7041D
:103B5000034714009307A002631BF702B24709044E
:103B6000138747009C433AC663C107023ECA35A883
:103B70003307E04093E727003ACE3EC8E1B7B3876A
:103B8000670385462E84BA972DBFFD57C5B7050438
:103B900002CA814681472546034704009305140065
:103BA000130707FD6378E606F1F2834504000D462E
:103BB0001745000013058537EF00D02311CD974737
:103BC00000009387A7361D8D93070004B397A700C5
:103BD000424505045D8D2AC88345040019461745F2
:103BE00000001305E534130914002304B102EF00AB
:103BF00070203DC197C7FFFF9387C74095E74247B5
:103C0000B2471377071009CF91073EC69257D29754
:103C10003ED21DB5B387670385462E84BA97ADBFE4
:103C20009D07E19BA107D5B7780097060000938612
:103C300026D626860C084E8597000000E700000077
:103C4000FD572A8AE314F5FC83D7C40093F70704D1
:103C5000E39A07EA125545BD78009706000093865F
:103C600026D326860C084E85012AD9BF797156CAFB
:103C70009C49BA8A984522D426D24ECE52CC06D63A
:103C80004AD05AC85EC6AA892E84B284368A63D3C3
:103C9000E700BA879CC00347340419C385079CC05A
:103CA0001C4093F7070281C79C4089079CC00329E9
:103CB000040013796900631A0900130B9401FD5B7A
:103CC0005C449840998F634CF9041C40834634044B
:103CD00093F70702B336D000A5EB13063404D28560
:103CE0004E85829AFD576303F5041C4011469840A7
:103CF000998B544481446397C700B384E64063D3EF
:103D0000040081441C4418486354F700998FBE9402
:103D1000014969047D5B63982405014509A885462E
:103D20005A86D2854E85829A631E75017D55B250A2
:103D3000225492540259F249624AD24A424BB24B3F
:103D4000456182800509ADBF3307D4001306000327
:103D5000A301C7040347540493871600A29789065A
:103D6000A381E7049DBF85462286D2854E85829A2F
:103D7000E30E65FB050945B7797122D426D24AD0F6
:103D80004ECE06D652CC56CA5AC8B68983C68501CD
:103D9000930790063289AA842E8413863504638D96
:103DA000F60263E2D706930780056389F61863ED90
:103DB000D7006382062293073004638FF60A930AC2
:103DC00024042301D404D1A0930730066386F60AA5
:103DD00093074006E395F6FE1C40084393F6070858
:103DE00093054500CDC61C410CC363D807001307DB
:103DF000D002B307F040A301E40497460000938685
:103E0000A613294775A8930700076385F61663E58F
:103E1000D7029307E006638CF6189307F006E39049
:103E2000F6FA0C401C4313F8050813854700630895
:103E3000080608C39C4395A893075007E383F6FE42
:103E400093078007638CF61293073007E399F6F621
:103E50001C43D04181459386470014C383AA0700C1
:103E60005685EF00207901C53305554148C05C40B7
:103E70001CC8A301040471A81C43930A240493865C
:103E800047009C4314C32301F4048547D5B793F638
:103E900007041C410CC3B1DAC207C187B9B793F557
:103EA000050408C3C1D983D707001307F006638848
:103EB000E60E97460000938626082947A3010404CE
:103EC0004C400CC463C5050008406D9908C099E3D7
:103ED000B28A91CDB28AB3F5E702FD1AB69583C5D1
:103EE00005002380BA00B3D5E70263F0E70CA147D1
:103EF000631EF7001C40858B91CB58401C4863C75C
:103F0000E70093070003A38FFAFEFD1A330656411C
:103F100010C84E87CA867000A2852685EFF01FD58F
:103F20007D5A631E450B7D55B2502254925402595E
:103F3000F249624AD24A424B45618280A382D5044B
:103F400097460000938646FF0C40084313F8050887
:103F50001C411105630D080208C313F7150001C7C2
:103F600093E505020CC04147B1FB0C4093F5F5FD0C
:103F70000CC0A9B79C4193E707029CC19307800737
:103F8000A302F40497460000938646FC75BF13F81D
:103F9000050408C3E30308FCC207C1837DBF97463D
:103FA0000000938666F9214711BFAE872DB7944173
:103FB0001C43CC4913F80608138547006306080024
:103FC00008C39C438CC301A808C393F606049C4312
:103FD000F5DA2390B70023280400B28A1DBF1448E5
:103FE0005686CA8526858299E30F45F31C40898B46
:103FF0008DE7B2474844E359F5F23E8535B785462B
:104000005686CA8526858299E30F65F1050A5C44C8
:104010003247998FE345FAFEE9BF014A930A9401BA
:104020007D5BF5B7411122C42A842E8523AE01F6AB
:1040300006C6EFE01F88FD576317F5009387C1F7A9
:104040009C4391C31CC0B240224441018280411173
:1040500022C42E848395E50006C6EF00E07A63490A
:1040600005007C48AA977CC8B24022444101828066
:104070008357C4007D777D17F98F2316F400EDB7C1
:1040800083D7C500011122CC26CA4AC84EC606CE27
:1040900093F70710AA842E843289B68991C7839535
:1040A000E5008946014635218357C4007D777D1799
:1040B000F98F2316F4008315E4006244F240CE86A3
:1040C0004A86B24942492685D244056101A241117E
:1040D00022C42E848395E50006C6E52EFD570357BE
:1040E000C400631BF500FD77FD17F98F2316F4005C
:1040F000B2402244410182808567D98F2316F400A3
:1041000068C8FDB78395E50001A4011122CC26CA39
:104110004AC806CE4EC6AA842E89328409C51C4DD3
:1041200099E3EFF02FA9974700009387A7DB631966
:10413000F406C0401C4C1CC48357C400A18BC9C3E7
:104140001C48BDCF1C4808409379F90F1379F90F2B
:104150001D8D5C486346F500A2852685012E2DE560
:104160001C440505FD171CC41C401387170018C00C
:10417000238037015C486389A7008357C400858B7F
:1041800081CBA9476316F900A2852685C5240DEDCC
:10419000F24062444A85D2444249B2490561828074
:1041A00097470000938707D66314F400804459B7FB
:1041B00097470000938707D1E31EF4F6C0449DBFE4
:1041C000A28526851D283DDD7D59D9B7411122C420
:1041D0002A842E85B285368623AE01F606C6EFE028
:1041E0008FE8FD576317F5009387C1F79C4391C390
:1041F0001CC0B24022444101828041119387418119
:1042000026C2844322C44AC006C62A892E8491C489
:104210009C4C81E72685EFF0EF9997470000938744
:1042200067CC631CF402C0400317C4009317070156
:10423000C18393F68700B5EE93F607019DEEA5477F
:104240002320F900136707042316E4007D55B240CC
:10425000224492440249410182809747000093879B
:1042600067CA6314F4008044C1B79747000093877E
:1042700067C5E31BF4FAC04445BF918B8DC74C580A
:1042800089C9930744046384F5004A855921232A88
:1042900004028357C4002322040093F7B7FD2316BA
:1042A000F4001C481CC08357C40093E78700231602
:1042B000F4001C4881EF8357C4001307002093F7D4
:1042C00007286385E700A2854A8571248357C400C7
:1042D00013F7170005C75C4823240400B307F04018
:1042E0001CCC1C480145A5F78317C40013F7070829
:1042F00039DF93E707042316F40089BF898B014750
:1043000091E3584818C4F1BF411122C42A842E8574
:1043100023AE01F606C65123FD576317F5009387B8
:10432000C1F79C4391C31CC0B2402244410182802A
:1043300083D7C500011122CC26CA06CE4AC84EC674
:1043400013F78700AA842E8471EFD841634DE000F3
:10435000B841634AE0000145F2406244D244424918
:10436000B2490561828058547DD703A90400939611
:10437000370123A0040063DD060670488357C4009C
:10438000918B99C75C401D8E5C5899C33C401D8E33
:104390005C540C50814626858297FD570357C40014
:1043A000631DF5009440F54763E8D706B707402042
:1043B0008507B3D7D700858BA5C31C4823220400EB
:1043C0001CC09317370163D80700FD576314F5002D
:1043D0009C4091E368C84C5823A02401ADDD9307AD
:1043E00044046384F50026852D26232A0402A5B7FC
:1043F0000C500146854626850297FD572A86E31F05
:10440000F5F69C40A5DF75476385E700594763943F
:10441000E70423A0240181B7136707042316E400EF
:104420007D551DBF83A90501E38709F203A9050096
:104430008D8B23A0350133093941014791E3D849D8
:1044400018C4E35A20F11C540C50CA864E862685A7
:1044500082976349A0008357C40093E7070423169B
:10446000F4007DBFAA993309A940E1BF9C49A5C3C7
:10447000011122CC06CE2A8419C51C4D89E72EC60F
:10448000EFE05FF3B245974700009387A7A5639BD2
:10449000F5004C408397C50095C722856244F240E1
:1044A000056179B5974700009387C7A56394F50028
:1044B0000C44CDB7974700009387C7A0E39CF5FC59
:1044C0004C44C9BFF2406244014505618280014508
:1044D0008280411122C42A842E85B285368623AE7D
:1044E00001F606C6E92EFD576317F5009387C1F75D
:1044F0009C4391C31CC0B240224441018280197187
:10450000A6DAAE848395E500A2DC86DE328463DC25
:10451000050083D7C40023A0060093F707089DE396
:104520009307004015A0300836C62926B246E3425C
:1045300005FE7247BD67F98F7977BA9793B7170071
:104540009CC2F9BF930700041CC0F6506654D654B1
:1045500001450961828083D7C500011122CC06CEB6
:1045600026CA4AC8898B2E8489CF930774041CC03D
:104570001CC885475CC8F2406244D2444249056188
:10458000828074003000AA849D3FA2452A89268536
:10459000EFE03FF901ED8317C40013F7072061FF37
:1045A000F19B93E727002316F400C1B797F7FFFFAD
:1045B000938787DB9CD48357C40008C008C893E75F
:1045C00007082316F400A2475CC8B24789CF8315B9
:1045D000E4002685692401C98357C400F19B93E751
:1045E00017002316F4008357C4003369F90023161B
:1045F000240151B793F5F50F2A966314C5000145C0
:10460000828083470500E38DB7FE0505FDB7B3C77C
:10461000A5008D8B3307C50081E78D4763EEC7008A
:10462000AA876370E50A83C6050085078505A38F01
:10463000D7FEE3EAE7FE828093763500AA8791CA27
:1046400083C6050085078505A38FD7FE93F637003F
:10465000FDB79376C7FF138606FE63F0C70683A3F4
:10466000050083A2450083AF850003AFC50083AE7C
:10467000050103AE450103A3850183A8C501938508
:10468000450223A0770003A8C5FF23A2570023A457
:10469000F70123A6E70123A8D70123AAC70123AC6A
:1046A000670023AE17019387470223AE07FF75B754
:1046B00090419107910523AEC7FEE3EBD7FEE3E4FB
:1046C000E7F6828063F3A504B386C500637FD50255
:1046D0009345F6FF8147FD176393F500828033878A
:1046E000F600034807003387C7002A972300070115
:1046F000DDB73387F500834607003307F5008507EC
:104700002300D700E317F6FE82808147E5BF828051
:104710008280CDC183A7C5FF411122C406C626C22F
:104720001384C5FF63D307003E94AA84CD379387D3
:1047300081849C4399EB2322040023A48184224496
:10474000B240268592444101E1B7637EF4001440F3
:104750003307D4006396E7009843DC43369718C0CC
:104760005CC0E1BFBA87D84319C3E37DE4FE94433C
:104770003386D700631F86001040B29694C33386F9
:10478000D700E31EC7FA10435843B29694C3D8C368
:104790007DB76375C400B1479CC055B71040B306E0
:1047A000C4006316D70014435843B29614C058C0CF
:1047B000C0C371B7828081E5B2856FE09FD60111D9
:1047C00022CC06CE26CA4AC84EC6328419EA913790
:1047D0000149F24062444A85D2444249B2490561E6
:1047E0008280AE84AA8945202689E37485FEA2854D
:1047F0004E85EFE01FD32A8969DDA6852286013D1B
:10480000A6854E853937F1B7411122C42A842E85F9
:10481000B285368623AE01F606C64528FD576317D6
:10482000F5009387C1F79C4391C31CC0B24022445A
:1048300041018280411122C42A842E85B28523AE93
:1048400001F606C68D20FD576317F5009387C1F763
:104850009C4391C31CC0B24022444101828041115B
:1048600022C42A842E8523AE01F606C69920FD5760
:104870006317F5009387C1F79C4391C31CC0B240F6
:1048800022444101828083A7C5FF1385C7FF63D5FA
:104890000700AA959C413E9582809307800523AE30
:1048A000F1F67D5582809307800523AEF1F67D55A4
:1048B00082809307800523AEF1F60145828093073D
:1048C000800523AEF1F67D5582809307800523AEE7
:1048D000F1F67D558280000000000000000000001D
:1048E00000000000000000000000000000000000C8
:1048F00000000000000000000000000000000000B8
:1049000000000000000000000000000000000000A7
:104910000000000000000000000000000000000097
:104CD00000000000000000000000484200003443D3
:104CE0000000FA440000FA43505720526967687484
:104CF000000000005057204572726F7200000000E3
:104D000044000000590000004C4344206D616E7562
:104D10006661637475726572204944203D20307865
:104D200025782C200000000076657273696F6E2074
:104D30004944203D20307825782C20006472697623
:104D40006572204944203D20307825780D0A000006
:104D50005468657265206973206E6F20616E7920DA
:104D6000646566696E6520415343325F3132303885
:104D700020262620415343325F323431322026260A
:104D800020415343325F32343136202626204153AE
:104D900043325F33323136202100000025640000A9
:104DA000666F6E742073697A65282564292069739B
:104DB000206E6F7420737570706F72742100000024
:104DC00000000000000000000000000000000000E3
:104DD0000000001010101010100000101000000053
:104DE0000000002828282800000000000000000023
:104DF0000000001212167F2424FE284848000000FC
:104E0000000008083E4948683E0B09493E08080072
:104E1000000000609090620C304609090600000016
:104E20000000001C20203030494545623D00000054
:104E30000000001010101000000000000000000032
:104E400000000C08081010101010100808040000D2
:104E50000000301010080808080808101030000082
:104E600000000008493E1C6B080000000000000024
:104E70000000000000101010FE10101000000000D4
:104E800000000000000000000000001818102000C2
:104E900000000000000000000038000000000000DA
:104EA00000000000000000000000001818000000D2
:104EB0000000000204040408081010202020400014
:104EC0000000001C22414149414141221C000000D8
:104ED0000000001828080808080808083E0000001C
:104EE0000000003E43010102060C10207F0000007C
:104EF0000000003E4101031C030101433E0000008D
:104F0000000000060A1A1222427F0202020000007C
:104F10000000007E40407C42010101423C00000054
:104F20000000001E3160405E634141231E0000000E
:104F30000000007F03020404080810102000000095
:104F40000000003E4141413E634141633E0000009C
:104F50000000003C624141633D0103463C0000000B
:104F600000000000000018180000001818000000E1
:104F700000000000000018180000001818102000A1
:104F80000000000000010E3840380E010000000053
:104F90000000000000007F00007F00000000000013
:104FA000000000000040380E010E384000000000F4
:104FB0000000003844040C1810100010100000000D
:104FC0000000001E332147494949494720300E005F
:104FD0000000000814141414223E22414100000075
:104FE0000000007E4141417E434141437E0000007C
:104FF0000000001E21404040404040211E000000B3
:105000000000007C42414141414141427C0000009E
:105010000000007F4040407F404040407F00000053
:105020000000007F4040407F404040404000000082
:105030000000001E21404040434141211E0000006D
:10504000000000414141417F414141414100000098
:105050000000007C10101010101010107C000000D8
:105060000000001C0404040404040444380000008C
:105070000000004244485070784844464200000016
:105080000000004040404040404040407F00000061
:1050900000000063635555554941414141000000FE
:1050A00000000061615151494945454343000000FA
:1050B0000000001C22414141414141221C000000EE
:1050C0000000007E434141437E40404040000000DC
:1050D0000000001C22414141414141221E060200C4
:1050E0000000007E434141437C42414140000000BA
:1050F0000000001E614040300E0101433E000000F0
:10510000000000FE10101010101010101000000011
:105110000000004141414141414141633E000000E6
:10512000000000414122222214141414080000003F
:105130000000008181815A5A5A6666666600000046
:10514000000000412214140814142222410000001F
:105150000000008244442838101010101000000095
:105160000000007F03020408081020607F00000098
:1051700000001C101010101010101010101C000057
:105180000000004020202010100808040404020041
:10519000000038080808080808080808083800004F
:1051A000000000102844C6000000000000000000BD
:1051B000000000000000000000000000000000FFF0
:1051C0000030100800000000000000000000000097
:1051D00000000000001C22023E4242463A0000004D
:1051E00000004040407C6442424242645C00000057
:1051F00000000000001C2240404040221C00000033
:1052000000000202023E2642424242263A000000CC
:1052100000000000003C26427E4040221C000000AE
:1052200000000C10107C1010101010101000000066
:1052300000000000003A2642424242263A02221C66
:1052400000004040405C6242424242424200000054
:105250000000101000701010101010107C000000E2
:10526000000008080038080808080808080808703E
:10527000000040404044485070484844420000000C
:105280000000701010101010101010100E00000010
:1052900000000000007E4949494949494900000091
:1052A00000000000005C62424242424242000000B4
:1052B00000000000003C6642424242663C000000A2
:1052C00000000000005C6442424242647C40404076
:1052D00000000000003A2642424242263A02020200
:1052E00000000000003C3220202020202000000090
:1052F00000000000003C4240700E02423C000000F2
:1053000000000010107E1010101010100E00000091
:105310000000000000424242424242463A00000081
:105320000000000000424224242418181800000045
:10533000000000000081815A5A5A5A2424000000BB
:105340000000000000422418181824244200000025
:10535000000000000042222424141818080810300D
:1053600000000000007E0204081020407E000000C3
:1053700000000C10101010106010101010100C0015
:10538000000010101010101010101010101010103D
:1053900000006010101010100C10101010106000A1
:1053A00000000000000000000000000000000000FD
:1053B00000000000000000000000000000000000ED
:1053C00000000000000000000000000000000000DD
:1053D00000000000000000000600060006000600B5
:1053E0000600060006000600060006000000000099
:1053F000060006000600000000000000000000009B
:105400000000000000000000198019801980198038
:10541000198019800000000000000000000000005A
:10542000000000000000000000000000000000007C
:105430000000000000000000066004400CC00CC02A
:105440007FF07FF0088019801980FFE0FFE03300D3
:1054500033002200220000000000000000000000D5
:10546000000000000000020002000F801FC03A4050
:10547000320032003A001F0007C002E00260026002
:1054800022E03FC01F800200020002000000000076
:10549000000000000000000078004800CC00CC00B4
:1054A000CC00484079C00E0073C002400660066020
:1054B0000660024003C00000000000000000000081
:1054C00000000000000000000F801F80180018007E
:1054D00018000C001E003630633063B061A060E03D
:1054E00030C03F600E7000000000000000000000AF
:1054F0000000000000000000060006000600060094
:10550000060006000000000000000000000000008F
:10551000000000000000000000000000000000008B
:10552000000000000000010002000200060006006A
:1055300004000C000C000C000C000C000C000C0013
:105540000400060006000200020001000000000046
:10555000000000000000080004000400060006002F
:105560000200030003000300030003000300030024
:10557000020006000600040004000800000000000D
:1055800000000000000000000400040044403580DA
:105590000E000E00358044400400040000000000AE
:1055A00000000000000000000000000000000000FB
:1055B00000000000000000000000000006000600DF
:1055C0000600060006007FE07FE0060006000600F9
:1055D00006000600000000000000000000000000BF
:1055E00000000000000000000000000000000000BB
:1055F00000000000000000000000000000000000AB
:1056000006000600060006000C000C00000000006A
:10561000000000000000000000000000000000008A
:1056200000000000000000001F001F00000000003C
:10563000000000000000000000000000000000006A
:10564000000000000000000000000000000000005A
:10565000000000000000000000000000000000004A
:105660000600060006000000000000000000000028
:105670000000000000000000006000C000C00180C9
:105680000180030003000600060006000C000C0069
:10569000180018003000300060000000000000001A
:1056A00000000000000000001E003F80318071C03B
:1056B00060C060C066C066C060C060C060C071C0CD
:1056C00031803F800E00000000000000000000005C
:1056D000000000000000000007001F001B00030086
:1056E00003000300030003000300030003000300A2
:1056F00003001FE01FE000000000000000000000A9
:1057000000000000000000003F007F8041C000C09A
:1057100000C000C001C00180030006000C0018009A
:1057200030007FC07FC000000000000000000000CB
:1057300000000000000000003F007F8041C000C06A
:1057400000C001C00F800F80018000C000C000C0F9
:1057500041C07F803F00000000000000000000000A
:105760000000000000000000038003800780058027
:105770000D80098019803180318061807FE07FE079
:105780000180018001800000000000000000000096
:1057900000000000000000003F803F80300030002B
:1057A00030003F003F8021C000C000C000C000C0EA
:1057B00041807F803E0000000000000000000000EB
:1057C00000000000000000000F001F803880300043
:1057D000700060006F007F8071C060C060C060C0FA
:1057E00031C03F801F0000000000000000000000EA
:1057F00000000000000000007FC07FC00180018029
:1058000001800300030003000600060006000C00F0
:105810000C000C0018000000000000000000000058
:1058200000000000000000001F003F8071C060C049
:1058300060C031801F003F80318060C060C060C0A8
:1058400071C03F801F000000000000000000000049
:1058500000000000000000001F003F80718060C059
:1058600060C060C071C03FC01EC000C000C00180E9
:1058700023803F001E000000000000000000000028
:105880000000000000000000000000000000000018
:1058900006000600060000000000000000000000F6
:1058A00006000600060000000000000000000000E6
:1058B00000000000000000000000000000000000E8
:1058C00006000600060000000000000000000000C6
:1058D00006000600060006000C000C000000000098
:1058E0000000000000000000000000000000002098
:1058F00001E007801E00700070001E00078001E0BC
:105900000020000000000000000000000000000077
:105910000000000000000000000000000000000087
:10592000000000007FE07FE0000000007FE07FE0FB
:105930000000000000000000000000000000000067
:105940000000000000000000000000000000400017
:1059500078001E00078000E000E007801E0078004D
:1059600040000000000000000000000000000000F7
:1059700000000000000000000F801FC010600060E9
:1059800000E001C0038006000600060000000000E1
:1059900006000600060000000000000000000000F5
:1059A00000000000000000000000078018C0306008
:1059B000306023E0626066606660666066606660B4
:1059C000626033E0300018001C0007800000000017
:1059D0000000000000000000060006000F000F009D
:1059E0000F001F801980198019803FC03FC030C050
:1059F00030C0606060600000000000000000000037
:105A000000000000000000007F007F8061C060C0D7
:105A100060C061C07F807F8060C0606060606060E7
:105A200060E07FC07F8000000000000000000000F8
:105A3000000000000000000007C01FE03820300018
:105A40006000600060006000600060006000300086
:105A500038201FE007C00000000000000000000028
:105A600000000000000000007E007F8061C060C078
:105A7000606060606060606060606060606060C0C6
:105A800061C07F807E000000000000000000000078
:105A900000000000000000007FE07FE06000600088
:105AA000600060007FE07FE06000600060006000F8
:105AB00060007FE07FE000000000000000000000C8
:105AC00000000000000000007FE07FE06000600058
:105AD000600060007FC07FC0600060006000600008
:105AE0006000600060000000000000000000000096
:105AF00000000000000000000F801FC03840300090
:105B000060006000600061E061E0606060603060E3
:105B100038601FE00F80000000000000000000005F
:105B20000000000000000000606060606060606075
:105B3000606060607FE07FE0606060606060606027
:105B40006060606060600000000000000000000015
:105B500000000000000000003FC03FC0060006003B
:105B60000600060006000600060006000600060005
:105B700006003FC03FC00000000000000000000021
:105B800000000000000000001F801F8001800180D5
:105B900001800180018001800180018001800180FD
:105BA00043807F003E000000000000000000000075
:105BB0000000000000000000606060C061806300C1
:105BC00066006C007C007E0076006300638061806C
:105BD00060C060E0606000000000000000000000A5
:105BE0000000000000000000600060006000600035
:105BF00060006000600060006000600060006000A5
:105C000060007FE07FE00000000000000000000076
:105C1000000000000000000070E070E070E079E03B
:105C2000696069606F606660666066606060606041
:105C30006060606060600000000000000000000024
:105C40000000000000000000706070607860786004
:105C50006C606C606460666062606360636061E099
:105C600061E060E060E00000000000000000000073
:105C700000000000000000000F003FC030C070E0D6
:105C8000606060606060606060606060606070E084
:105C900030C03FC00F000000000000000000000006
:105CA00000000000000000007F807FC060E06060B6
:105CB0006060606060E07FC07F80600060006000C6
:105CC00060006000600000000000000000000000B4
:105CD00000000000000000000F003FC030C070E076
:105CE000606060606060606060606060606070E024
:105CF00030C01F800F00018000C000800000000045
:105D000000000000000000007F007FC060E06060D5
:105D10006060606060C07FC07F8061C060C06060A4
:105D20006060603060300000000000000000000093
:105D300000000000000000001F803FC070406000B5
:105D4000600070003E001F8001C0006000600060C5
:105D500040E07FC03F800000000000000000000025
:105D60000000000000000000FFF0FFF00600060049
:105D700006000600060006000600060006000600F3
:105D80000600060006000000000000000000000001
:105D90000000000000000000606060606060606003
:105DA00060606060606060606060606060606060F3
:105DB00070E03FC01F8000000000000000000000F5
:105DC00000000000000000006060606030C030C073
:105DD00030C030C01980198019801F800F000F005B
:105DE0000F00060006000000000000000000000098
:105DF0000000000000000000C030C030C030606013
:105E0000666066606F606F606960696039C039C0E4
:105E100039C030C030C000000000000000000000A9
:105E2000000000000000000070E030C039C01980A0
:105E30000F000F00060006000F000F001B801980E6
:105E400031C030C060E00000000000000000000031
:105E50000000000000000000E070606030C030C052
:105E600019801F800F0006000600060006000600CD
:105E70000600060006000000000000000000000010
:105E800000000000000000007FE07FE000C001C0D3
